{
  "_format": "hh-sol-artifact-1",
  "contractName": "Carpooling",
  "sourceName": "contracts/Carpooling.sol",
  "abi": [
    {
      "inputs": [],
      "stateMutability": "nonpayable",
      "type": "constructor"
    },
    {
      "inputs": [
        {
          "internalType": "string",
          "name": "_destination",
          "type": "string"
        }
      ],
      "name": "bookRide",
      "outputs": [],
      "stateMutability": "payable",
      "type": "function"
    },
    {
      "inputs": [
        {
          "internalType": "uint256",
          "name": "rideId",
          "type": "uint256"
        }
      ],
      "name": "confirmPayment",
      "outputs": [],
      "stateMutability": "payable",
      "type": "function"
    },
    {
      "inputs": [],
      "name": "getLatestPrice",
      "outputs": [
        {
          "internalType": "int256",
          "name": "",
          "type": "int256"
        }
      ],
      "stateMutability": "view",
      "type": "function"
    },
    {
      "inputs": [],
      "name": "rideCount",
      "outputs": [
        {
          "internalType": "uint256",
          "name": "",
          "type": "uint256"
        }
      ],
      "stateMutability": "view",
      "type": "function"
    },
    {
      "inputs": [
        {
          "internalType": "uint256",
          "name": "",
          "type": "uint256"
        }
      ],
      "name": "rides",
      "outputs": [
        {
          "internalType": "string",
          "name": "destination",
          "type": "string"
        },
        {
          "internalType": "address",
          "name": "rider",
          "type": "address"
        },
        {
          "internalType": "uint256",
          "name": "amount",
          "type": "uint256"
        },
        {
          "internalType": "bool",
          "name": "isPaid",
          "type": "bool"
        }
      ],
      "stateMutability": "view",
      "type": "function"
    }
  ],
  "bytecode": "0x6080604052348015600f57600080fd5b50610c1d8061001f6000396000f3fe6080604052600436106100495760003560e01c8062e3a77e1461004e5780635205f1121461006a578063876ca09f146100aa5780638e15f473146100c6578063b47c1883146100f1575b600080fd5b61006860048036038101906100639190610589565b61011c565b005b34801561007657600080fd5b50610091600480360381019061008c9190610608565b61020f565b6040516100a1949392919061071f565b60405180910390f35b6100c460048036038101906100bf9190610608565b6102f4565b005b3480156100d257600080fd5b506100db610420565b6040516100e89190610784565b60405180910390f35b3480156100fd57600080fd5b50610106610429565b604051610113919061079f565b60405180910390f35b6001600081548092919061012f906107e9565b919050555060405180608001604052808281526020013373ffffffffffffffffffffffffffffffffffffffff16815260200134815260200160001515815250600080600154815260200190815260200160002060008201518160000190816101979190610a3d565b5060208201518160010160006101000a81548173ffffffffffffffffffffffffffffffffffffffff021916908373ffffffffffffffffffffffffffffffffffffffff1602179055506040820151816002015560608201518160030160006101000a81548160ff02191690831515021790555090505050565b600060205280600052604060002060009150905080600001805461023290610860565b80601f016020809104026020016040519081016040528092919081815260200182805461025e90610860565b80156102ab5780601f10610280576101008083540402835291602001916102ab565b820191906000526020600020905b81548152906001019060200180831161028e57829003601f168201915b5050505050908060010160009054906101000a900473ffffffffffffffffffffffffffffffffffffffff16908060020154908060030160009054906101000a900460ff16905084565b3373ffffffffffffffffffffffffffffffffffffffff1660008083815260200190815260200160002060010160009054906101000a900473ffffffffffffffffffffffffffffffffffffffff1673ffffffffffffffffffffffffffffffffffffffff1614610397576040517f08c379a000000000000000000000000000000000000000000000000000000000815260040161038e90610b5b565b60405180910390fd5b600080828152602001908152602001600020600201543410156103ef576040517f08c379a00000000000000000000000000000000000000000000000000000000081526004016103e690610bc7565b60405180910390fd5b600160008083815260200190815260200160002060030160006101000a81548160ff02191690831515021790555050565b60006007905090565b60015481565b6000604051905090565b600080fd5b600080fd5b600080fd5b600080fd5b6000601f19601f8301169050919050565b7f4e487b7100000000000000000000000000000000000000000000000000000000600052604160045260246000fd5b6104968261044d565b810181811067ffffffffffffffff821117156104b5576104b461045e565b5b80604052505050565b60006104c861042f565b90506104d4828261048d565b919050565b600067ffffffffffffffff8211156104f4576104f361045e565b5b6104fd8261044d565b9050602081019050919050565b82818337600083830152505050565b600061052c610527846104d9565b6104be565b90508281526020810184848401111561054857610547610448565b5b61055384828561050a565b509392505050565b600082601f8301126105705761056f610443565b5b8135610580848260208601610519565b91505092915050565b60006020828403121561059f5761059e610439565b5b600082013567ffffffffffffffff8111156105bd576105bc61043e565b5b6105c98482850161055b565b91505092915050565b6000819050919050565b6105e5816105d2565b81146105f057600080fd5b50565b600081359050610602816105dc565b92915050565b60006020828403121561061e5761061d610439565b5b600061062c848285016105f3565b91505092915050565b600081519050919050565b600082825260208201905092915050565b60005b8381101561066f578082015181840152602081019050610654565b60008484015250505050565b600061068682610635565b6106908185610640565b93506106a0818560208601610651565b6106a98161044d565b840191505092915050565b600073ffffffffffffffffffffffffffffffffffffffff82169050919050565b60006106df826106b4565b9050919050565b6106ef816106d4565b82525050565b6106fe816105d2565b82525050565b60008115159050919050565b61071981610704565b82525050565b60006080820190508181036000830152610739818761067b565b905061074860208301866106e6565b61075560408301856106f5565b6107626060830184610710565b95945050505050565b6000819050919050565b61077e8161076b565b82525050565b60006020820190506107996000830184610775565b92915050565b60006020820190506107b460008301846106f5565b92915050565b7f4e487b7100000000000000000000000000000000000000000000000000000000600052601160045260246000fd5b60006107f4826105d2565b91507fffffffffffffffffffffffffffffffffffffffffffffffffffffffffffffffff8203610826576108256107ba565b5b600182019050919050565b7f4e487b7100000000000000000000000000000000000000000000000000000000600052602260045260246000fd5b6000600282049050600182168061087857607f821691505b60208210810361088b5761088a610831565b5b50919050565b60008190508160005260206000209050919050565b60006020601f8301049050919050565b600082821b905092915050565b6000600883026108f37fffffffffffffffffffffffffffffffffffffffffffffffffffffffffffffffff826108b6565b6108fd86836108b6565b95508019841693508086168417925050509392505050565b6000819050919050565b600061093a610935610930846105d2565b610915565b6105d2565b9050919050565b6000819050919050565b6109548361091f565b61096861096082610941565b8484546108c3565b825550505050565b600090565b61097d610970565b61098881848461094b565b505050565b5b818110156109ac576109a1600082610975565b60018101905061098e565b5050565b601f8211156109f1576109c281610891565b6109cb846108a6565b810160208510156109da578190505b6109ee6109e6856108a6565b83018261098d565b50505b505050565b600082821c905092915050565b6000610a14600019846008026109f6565b1980831691505092915050565b6000610a2d8383610a03565b9150826002028217905092915050565b610a4682610635565b67ffffffffffffffff811115610a5f57610a5e61045e565b5b610a698254610860565b610a748282856109b0565b600060209050601f831160018114610aa75760008415610a95578287015190505b610a9f8582610a21565b865550610b07565b601f198416610ab586610891565b60005b82811015610add57848901518255600182019150602085019450602081019050610ab8565b86831015610afa5784890151610af6601f891682610a03565b8355505b6001600288020188555050505b505050505050565b7f4f6e6c792072696465722063616e20636f6e6669726d00000000000000000000600082015250565b6000610b45601683610640565b9150610b5082610b0f565b602082019050919050565b60006020820190508181036000830152610b7481610b38565b9050919050565b7f496e73756666696369656e74207061796d656e74000000000000000000000000600082015250565b6000610bb1601483610640565b9150610bbc82610b7b565b602082019050919050565b60006020820190508181036000830152610be081610ba4565b905091905056fea26469706673582212206c1829a4beafad76eafa9af696c7bfc3d36de74f39727610161b2b375f08415564736f6c634300081b0033",
  "linkReferences": {},
  "deployedLinkReferences": {}
}